:020000000C945E
:100002006B000C9400000C9400000C9400000C9403
:1000120000000C9400000C9400000C9400000C945E
:1000220000000C9400000C9400000C9400000C944E
:1000320000000C9400000C9400000C9400000C943E
:1000420000000C9400000C949B000C9400000C9493
:1000520000000C9400000C9400000C9400000C941E
:1000620000000C9400000C9400000C9400000C940E
:1000720000000C9400000C94B4000C9400000C944A
:1000820000000C9400000C9400001027E8036400A8
:100092000A00010000100001100001000000000031
:1000A2000000000053616C616D21000080C00100FE
:1000B2002D4E414E00494E460000010002009E00B6
:1000C20006000400A00002001005AE0001001405A5
:1000D200B0000000F894EE27ECBBF1E0F5BFE5BFFD
:1000E200E0936C008DE0A2E0BB27ED938A95E9F7DF
:1000F20080E090E1A0E0B1E0ED930197E9F7ECEB4D
:10010200F0E085919591009761F0A591B5910590E8
:100112001590BF01F00105900D920197E1F7FB01E7
:10012200F0CF8BBFEFEFEDBFE0E1EEBFC0E0D5E077
:100132000C94D5000E9469021BB10CB1E12FEC7145
:1001420089F4E52D5394F0E0E050FB4F0083E8E0A2
:10015200E51509F455247394E8E0E71519F47724BA
:10016200689420F81AC00E94690210919B000091C5
:100172009C00E12FEC7189F4E62D6394F0E0E85FD6
:10018200FA4F0083E8E0E61509F466248394E8E078
:10019200E81519F48824689421F809911991E991D4
:1001A200EFBFF991E9911895E8E0EABBEBBBE0E01B
:1001B200E7BBE8BBE4BBE5BBE1BBE2BBE2B9E3B949
:1001C200E0936100E0936200E0936400E0936500D5
:1001D200E0BFE3BFE2BFE1BFEFBDEEBDEDBDECBDF1
:1001E200E7BDE6BDEBBDEABDE9BDE8BDE093790040
:1001F200E0937800E5BDE4BDE3BDE0938B00E093BE
:100202008A00E0938900E0938800E0938100E09304
:100212008000E0938700E0938600E0938500E093FE
:100222008400E0938300E0938200E7BFE0937D00C7
:10023200E0936A00EABFE9BFEBB9E8E9EAB9E6E0B0
:10024200E0939500E0E0E0939000E7E6E9B9E0E0B2
:10025200E0939B00E8E9E0939A00E6E0E0939D00DA
:10026200E0E0E0939800E7E6E0939900E0E8E8B97F
:10027200E0E0E0BDE6B9EDB9E0937400EA93EA93F9
:10028200A0E00E944302A4E10E94E201EFE1E1BD8D
:10029200EFE0E1BD78940FD0A6EAB0E07FD0DB9B1F
:1002A20002C0DB9801C0DB9AA8EEB3E080E090E0E8
:1002B20004D0F1CFFFCFA89508950E94970224970A
:1002C200E1E0F0E060E070E00E949202EC81FD81EA
:1002D2006E817F810E948D020E949C0270F0A1E0DB
:1002E200B0E00E947E02A8950E948802EF5FFF4F55
:1002F2006F4F7F4F0E949202E9CF28960895AA93EA
:10030200EBB3EF70AE2FE881E07FEA2BEBBB8BE122
:100312008A95F1F7DA9A8BE18A95F1F7DA988BE10F
:100322008A95F1F78AC0AA93A881E9DFE881E2956C
:10033200E883A881E4DF88EC90E00197F1F77DC0C3
:10034200AA93E881F0E0E05FFA4FE081A981AE0F65
:10035200EADFB980A8800C944102A2E00E947002F8
:10036200ACE0E1DFA1E00E947002E0E0AE2EBE2E22
:100372000895AA93A881AA3011F0BD1448F0E0E0D4
:10038200EA93A394AA2DDCDFA881AA3009F455C010
:10039200B394D89AA881C7DFD8984FC0BA93AA93CA
:1003A2001A93E981FA813196E983FA833197E491CC
:1003B2001E2FE03019F0A12FDCDFF3CF18810C944F
:1003C2006702AA93EAB3E06FEABBD29AD09AD19AB3
:1003D200DA98D898D998D880E881E058E093120545
:1003E200E881E054E0931305A4E1B0E00E947E02AC
:1003F2000E9476020E9476020E947602A0E27FDFCD
:1004020080E991E00197F1F7A8E28DDFA4E08BDFAC
:10041200A5E889DFA6E087DFA0DF0FC0AA988BE1FD
:100422008A95F1F70895AA93A19AA09AA29AAA9AF4
:100432008BE18A95F1F7A88102D021960895AA93BB
:10044200E991A8E0E795A89808F4A89A00000000AE
:1004520000000000A99A8BE08A95F1F7A9988BE039
:100462008A95F1F7AA9571F70895AA93E981EE7F2B
:10047200AE2F0E941402A8810E9420020E940F0245
:1004820022960895AA93E881E370E883EA81E03036
:1004920019F0E881E06AE883A981A13019F4E881C2
:1004A200E46007C0A981A23019F4E881E86001C0C4
:1004B200E0E0E883EEE8EA93A0E0D7DFE0E9EA9340
:1004C200A981D3DFEEE8EA93A0E8CFDF239608956F
:1004D200EA93FA93EFB7EA931A930A9308950E9464
:1004E2009401A3E0B0E00C947E02A0E30E9480019C
:1004F20080E991E00197F1F70895109639F080EACA
:100502009FE00197F1F7A8951197C9F70895E8813F
:10051200F9816A817B810895A881B9818A819B8151
:100522000895E883F9836A837B8308959A938A9373
:10053200BA93AA930895EA17FB0768077907089503
:00000001FF
